{
  "_format": "hh-sol-artifact-1",
  "contractName": "MYSC",
  "sourceName": "contracts/AMysteryCubesClub.sol",
  "abi": [
    {
      "inputs": [
        {
          "internalType": "string",
          "name": "_URI",
          "type": "string"
        }
      ],
      "stateMutability": "nonpayable",
      "type": "constructor"
    },
    {
      "anonymous": false,
      "inputs": [
        {
          "indexed": true,
          "internalType": "address",
          "name": "owner",
          "type": "address"
        },
        {
          "indexed": true,
          "internalType": "address",
          "name": "approved",
          "type": "address"
        },
        {
          "indexed": true,
          "internalType": "uint256",
          "name": "tokenId",
          "type": "uint256"
        }
      ],
      "name": "Approval",
      "type": "event"
    },
    {
      "anonymous": false,
      "inputs": [
        {
          "indexed": true,
          "internalType": "address",
          "name": "owner",
          "type": "address"
        },
        {
          "indexed": true,
          "internalType": "address",
          "name": "operator",
          "type": "address"
        },
        {
          "indexed": false,
          "internalType": "bool",
          "name": "approved",
          "type": "bool"
        }
      ],
      "name": "ApprovalForAll",
      "type": "event"
    },
    {
      "anonymous": false,
      "inputs": [
        {
          "indexed": true,
          "internalType": "address",
          "name": "previousOwner",
          "type": "address"
        },
        {
          "indexed": true,
          "internalType": "address",
          "name": "newOwner",
          "type": "address"
        }
      ],
      "name": "OwnershipTransferred",
      "type": "event"
    },
    {
      "anonymous": false,
      "inputs": [
        {
          "indexed": true,
          "internalType": "address",
          "name": "from",
          "type": "address"
        },
        {
          "indexed": true,
          "internalType": "address",
          "name": "to",
          "type": "address"
        },
        {
          "indexed": true,
          "internalType": "uint256",
          "name": "tokenId",
          "type": "uint256"
        }
      ],
      "name": "Transfer",
      "type": "event"
    },
    {
      "anonymous": false,
      "inputs": [
        {
          "indexed": false,
          "internalType": "address",
          "name": "_by",
          "type": "address"
        },
        {
          "indexed": false,
          "internalType": "uint256",
          "name": "_tokenId",
          "type": "uint256"
        },
        {
          "indexed": false,
          "internalType": "string",
          "name": "_art_path",
          "type": "string"
        }
      ],
      "name": "cubeArtChange",
      "type": "event"
    },
    {
      "anonymous": false,
      "inputs": [
        {
          "indexed": false,
          "internalType": "address",
          "name": "_by",
          "type": "address"
        },
        {
          "indexed": false,
          "internalType": "uint256",
          "name": "_tokenId",
          "type": "uint256"
        },
        {
          "indexed": false,
          "internalType": "string",
          "name": "_quote",
          "type": "string"
        }
      ],
      "name": "cubeMetaverseChange",
      "type": "event"
    },
    {
      "anonymous": false,
      "inputs": [
        {
          "indexed": false,
          "internalType": "address",
          "name": "_by",
          "type": "address"
        },
        {
          "indexed": false,
          "internalType": "uint256",
          "name": "_tokenId",
          "type": "uint256"
        },
        {
          "indexed": false,
          "internalType": "string",
          "name": "_name",
          "type": "string"
        }
      ],
      "name": "cubeNameChange",
      "type": "event"
    },
    {
      "anonymous": false,
      "inputs": [
        {
          "indexed": false,
          "internalType": "address",
          "name": "_by",
          "type": "address"
        },
        {
          "indexed": false,
          "internalType": "uint256",
          "name": "_tokenId",
          "type": "uint256"
        },
        {
          "indexed": false,
          "internalType": "string",
          "name": "_quote",
          "type": "string"
        }
      ],
      "name": "cubeQuoteChange",
      "type": "event"
    },
    {
      "anonymous": false,
      "inputs": [
        {
          "indexed": false,
          "internalType": "address",
          "name": "",
          "type": "address"
        }
      ],
      "name": "mintSuccess",
      "type": "event"
    },
    {
      "anonymous": false,
      "inputs": [
        {
          "indexed": false,
          "internalType": "address",
          "name": "_by",
          "type": "address"
        },
        {
          "indexed": false,
          "internalType": "uint256",
          "name": "_status",
          "type": "uint256"
        }
      ],
      "name": "ticketChange",
      "type": "event"
    },
    {
      "inputs": [],
      "name": "allCubeQuote",
      "outputs": [
        {
          "internalType": "string[]",
          "name": "",
          "type": "string[]"
        }
      ],
      "stateMutability": "view",
      "type": "function"
    },
    {
      "inputs": [],
      "name": "allMetaverse",
      "outputs": [
        {
          "internalType": "string[]",
          "name": "",
          "type": "string[]"
        }
      ],
      "stateMutability": "view",
      "type": "function"
    },
    {
      "inputs": [],
      "name": "allName",
      "outputs": [
        {
          "internalType": "string[]",
          "name": "",
          "type": "string[]"
        }
      ],
      "stateMutability": "view",
      "type": "function"
    },
    {
      "inputs": [
        {
          "internalType": "address",
          "name": "to",
          "type": "address"
        },
        {
          "internalType": "uint256",
          "name": "tokenId",
          "type": "uint256"
        }
      ],
      "name": "approve",
      "outputs": [],
      "stateMutability": "nonpayable",
      "type": "function"
    },
    {
      "inputs": [
        {
          "internalType": "uint256",
          "name": "",
          "type": "uint256"
        }
      ],
      "name": "art_Path",
      "outputs": [
        {
          "internalType": "string",
          "name": "",
          "type": "string"
        }
      ],
      "stateMutability": "view",
      "type": "function"
    },
    {
      "inputs": [
        {
          "internalType": "address",
          "name": "owner",
          "type": "address"
        }
      ],
      "name": "balanceOf",
      "outputs": [
        {
          "internalType": "uint256",
          "name": "",
          "type": "uint256"
        }
      ],
      "stateMutability": "view",
      "type": "function"
    },
    {
      "inputs": [],
      "name": "baseURI",
      "outputs": [
        {
          "internalType": "string",
          "name": "",
          "type": "string"
        }
      ],
      "stateMutability": "view",
      "type": "function"
    },
    {
      "inputs": [],
      "name": "buy_Ticket",
      "outputs": [],
      "stateMutability": "payable",
      "type": "function"
    },
    {
      "inputs": [
        {
          "internalType": "uint256",
          "name": "",
          "type": "uint256"
        }
      ],
      "name": "cube_Quote",
      "outputs": [
        {
          "internalType": "string",
          "name": "",
          "type": "string"
        }
      ],
      "stateMutability": "view",
      "type": "function"
    },
    {
      "inputs": [],
      "name": "cubesReserve",
      "outputs": [
        {
          "internalType": "uint256",
          "name": "",
          "type": "uint256"
        }
      ],
      "stateMutability": "view",
      "type": "function"
    },
    {
      "inputs": [
        {
          "internalType": "uint256",
          "name": "tokenId",
          "type": "uint256"
        }
      ],
      "name": "getApproved",
      "outputs": [
        {
          "internalType": "address",
          "name": "",
          "type": "address"
        }
      ],
      "stateMutability": "view",
      "type": "function"
    },
    {
      "inputs": [
        {
          "internalType": "uint256",
          "name": "_tokenId",
          "type": "uint256"
        }
      ],
      "name": "getCubeData",
      "outputs": [
        {
          "internalType": "string",
          "name": "",
          "type": "string"
        },
        {
          "internalType": "string",
          "name": "",
          "type": "string"
        },
        {
          "internalType": "string",
          "name": "",
          "type": "string"
        }
      ],
      "stateMutability": "view",
      "type": "function"
    },
    {
      "inputs": [
        {
          "internalType": "uint256",
          "name": "_tokenId",
          "type": "uint256"
        }
      ],
      "name": "getMetaversePath",
      "outputs": [
        {
          "internalType": "string",
          "name": "",
          "type": "string"
        }
      ],
      "stateMutability": "view",
      "type": "function"
    },
    {
      "inputs": [],
      "name": "get_My_Ticket_Balance",
      "outputs": [
        {
          "internalType": "uint256",
          "name": "",
          "type": "uint256"
        }
      ],
      "stateMutability": "view",
      "type": "function"
    },
    {
      "inputs": [
        {
          "internalType": "address",
          "name": "owner",
          "type": "address"
        },
        {
          "internalType": "address",
          "name": "operator",
          "type": "address"
        }
      ],
      "name": "isApprovedForAll",
      "outputs": [
        {
          "internalType": "bool",
          "name": "",
          "type": "bool"
        }
      ],
      "stateMutability": "view",
      "type": "function"
    },
    {
      "inputs": [],
      "name": "maxTickets",
      "outputs": [
        {
          "internalType": "uint256",
          "name": "",
          "type": "uint256"
        }
      ],
      "stateMutability": "view",
      "type": "function"
    },
    {
      "inputs": [],
      "name": "max_Cubes",
      "outputs": [
        {
          "internalType": "uint256",
          "name": "",
          "type": "uint256"
        }
      ],
      "stateMutability": "view",
      "type": "function"
    },
    {
      "inputs": [
        {
          "internalType": "uint256",
          "name": "",
          "type": "uint256"
        }
      ],
      "name": "member_Name",
      "outputs": [
        {
          "internalType": "string",
          "name": "",
          "type": "string"
        }
      ],
      "stateMutability": "view",
      "type": "function"
    },
    {
      "inputs": [
        {
          "internalType": "uint256",
          "name": "",
          "type": "uint256"
        }
      ],
      "name": "metaverse_Path",
      "outputs": [
        {
          "internalType": "string",
          "name": "",
          "type": "string"
        }
      ],
      "stateMutability": "view",
      "type": "function"
    },
    {
      "inputs": [
        {
          "internalType": "uint256",
          "name": "amount",
          "type": "uint256"
        }
      ],
      "name": "mint_Cubes",
      "outputs": [],
      "stateMutability": "nonpayable",
      "type": "function"
    },
    {
      "inputs": [],
      "name": "mintingSaleIsActive",
      "outputs": [
        {
          "internalType": "bool",
          "name": "",
          "type": "bool"
        }
      ],
      "stateMutability": "view",
      "type": "function"
    },
    {
      "inputs": [],
      "name": "name",
      "outputs": [
        {
          "internalType": "string",
          "name": "",
          "type": "string"
        }
      ],
      "stateMutability": "view",
      "type": "function"
    },
    {
      "inputs": [],
      "name": "owner",
      "outputs": [
        {
          "internalType": "address",
          "name": "",
          "type": "address"
        }
      ],
      "stateMutability": "view",
      "type": "function"
    },
    {
      "inputs": [
        {
          "internalType": "uint256",
          "name": "tokenId",
          "type": "uint256"
        }
      ],
      "name": "ownerOf",
      "outputs": [
        {
          "internalType": "address",
          "name": "",
          "type": "address"
        }
      ],
      "stateMutability": "view",
      "type": "function"
    },
    {
      "inputs": [],
      "name": "price",
      "outputs": [
        {
          "internalType": "uint256",
          "name": "",
          "type": "uint256"
        }
      ],
      "stateMutability": "view",
      "type": "function"
    },
    {
      "inputs": [],
      "name": "renounceOwnership",
      "outputs": [],
      "stateMutability": "nonpayable",
      "type": "function"
    },
    {
      "inputs": [
        {
          "internalType": "address",
          "name": "_to",
          "type": "address"
        },
        {
          "internalType": "uint256",
          "name": "_reserveAmount",
          "type": "uint256"
        }
      ],
      "name": "reserveCubes",
      "outputs": [],
      "stateMutability": "nonpayable",
      "type": "function"
    },
    {
      "inputs": [
        {
          "internalType": "address",
          "name": "from",
          "type": "address"
        },
        {
          "internalType": "address",
          "name": "to",
          "type": "address"
        },
        {
          "internalType": "uint256",
          "name": "tokenId",
          "type": "uint256"
        }
      ],
      "name": "safeTransferFrom",
      "outputs": [],
      "stateMutability": "nonpayable",
      "type": "function"
    },
    {
      "inputs": [
        {
          "internalType": "address",
          "name": "from",
          "type": "address"
        },
        {
          "internalType": "address",
          "name": "to",
          "type": "address"
        },
        {
          "internalType": "uint256",
          "name": "tokenId",
          "type": "uint256"
        },
        {
          "internalType": "bytes",
          "name": "_data",
          "type": "bytes"
        }
      ],
      "name": "safeTransferFrom",
      "outputs": [],
      "stateMutability": "nonpayable",
      "type": "function"
    },
    {
      "inputs": [
        {
          "internalType": "address",
          "name": "operator",
          "type": "address"
        },
        {
          "internalType": "bool",
          "name": "approved",
          "type": "bool"
        }
      ],
      "name": "setApprovalForAll",
      "outputs": [],
      "stateMutability": "nonpayable",
      "type": "function"
    },
    {
      "inputs": [
        {
          "internalType": "uint256",
          "name": "_tokenId",
          "type": "uint256"
        },
        {
          "internalType": "string",
          "name": "_art",
          "type": "string"
        }
      ],
      "name": "setArtPath",
      "outputs": [],
      "stateMutability": "nonpayable",
      "type": "function"
    },
    {
      "inputs": [
        {
          "internalType": "uint256",
          "name": "_tokenId",
          "type": "uint256"
        },
        {
          "internalType": "string",
          "name": "_quote",
          "type": "string"
        }
      ],
      "name": "setCubeQuote",
      "outputs": [],
      "stateMutability": "nonpayable",
      "type": "function"
    },
    {
      "inputs": [
        {
          "internalType": "uint256",
          "name": "_tokenId",
          "type": "uint256"
        },
        {
          "internalType": "string",
          "name": "_name",
          "type": "string"
        }
      ],
      "name": "setMemberName",
      "outputs": [],
      "stateMutability": "nonpayable",
      "type": "function"
    },
    {
      "inputs": [
        {
          "internalType": "uint256",
          "name": "_tokenId",
          "type": "uint256"
        },
        {
          "internalType": "string",
          "name": "_metaverse_path",
          "type": "string"
        }
      ],
      "name": "setMetaversePath",
      "outputs": [],
      "stateMutability": "nonpayable",
      "type": "function"
    },
    {
      "inputs": [],
      "name": "setMintingSaleIsActive",
      "outputs": [],
      "stateMutability": "nonpayable",
      "type": "function"
    },
    {
      "inputs": [],
      "name": "setTicketSaleIsActive",
      "outputs": [],
      "stateMutability": "nonpayable",
      "type": "function"
    },
    {
      "inputs": [
        {
          "internalType": "string",
          "name": "_baseURI",
          "type": "string"
        }
      ],
      "name": "setbaseURI",
      "outputs": [],
      "stateMutability": "nonpayable",
      "type": "function"
    },
    {
      "inputs": [
        {
          "internalType": "bytes4",
          "name": "interfaceId",
          "type": "bytes4"
        }
      ],
      "name": "supportsInterface",
      "outputs": [
        {
          "internalType": "bool",
          "name": "",
          "type": "bool"
        }
      ],
      "stateMutability": "view",
      "type": "function"
    },
    {
      "inputs": [],
      "name": "symbol",
      "outputs": [
        {
          "internalType": "string",
          "name": "",
          "type": "string"
        }
      ],
      "stateMutability": "view",
      "type": "function"
    },
    {
      "inputs": [],
      "name": "ticketSaleIsActive",
      "outputs": [
        {
          "internalType": "bool",
          "name": "",
          "type": "bool"
        }
      ],
      "stateMutability": "view",
      "type": "function"
    },
    {
      "inputs": [
        {
          "internalType": "address",
          "name": "",
          "type": "address"
        }
      ],
      "name": "ticketbalance",
      "outputs": [
        {
          "internalType": "uint256",
          "name": "",
          "type": "uint256"
        }
      ],
      "stateMutability": "view",
      "type": "function"
    },
    {
      "inputs": [],
      "name": "ticketsCount",
      "outputs": [
        {
          "internalType": "uint256",
          "name": "",
          "type": "uint256"
        }
      ],
      "stateMutability": "view",
      "type": "function"
    },
    {
      "inputs": [
        {
          "internalType": "uint256",
          "name": "index",
          "type": "uint256"
        }
      ],
      "name": "tokenByIndex",
      "outputs": [
        {
          "internalType": "uint256",
          "name": "",
          "type": "uint256"
        }
      ],
      "stateMutability": "view",
      "type": "function"
    },
    {
      "inputs": [
        {
          "internalType": "address",
          "name": "owner",
          "type": "address"
        },
        {
          "internalType": "uint256",
          "name": "index",
          "type": "uint256"
        }
      ],
      "name": "tokenOfOwnerByIndex",
      "outputs": [
        {
          "internalType": "uint256",
          "name": "",
          "type": "uint256"
        }
      ],
      "stateMutability": "view",
      "type": "function"
    },
    {
      "inputs": [
        {
          "internalType": "uint256",
          "name": "tokenId",
          "type": "uint256"
        }
      ],
      "name": "tokenURI",
      "outputs": [
        {
          "internalType": "string",
          "name": "",
          "type": "string"
        }
      ],
      "stateMutability": "view",
      "type": "function"
    },
    {
      "inputs": [],
      "name": "totalSupply",
      "outputs": [
        {
          "internalType": "uint256",
          "name": "",
          "type": "uint256"
        }
      ],
      "stateMutability": "view",
      "type": "function"
    },
    {
      "inputs": [
        {
          "internalType": "address",
          "name": "from",
          "type": "address"
        },
        {
          "internalType": "address",
          "name": "to",
          "type": "address"
        },
        {
          "internalType": "uint256",
          "name": "tokenId",
          "type": "uint256"
        }
      ],
      "name": "transferFrom",
      "outputs": [],
      "stateMutability": "nonpayable",
      "type": "function"
    },
    {
      "inputs": [
        {
          "internalType": "address",
          "name": "newOwner",
          "type": "address"
        }
      ],
      "name": "transferOwnership",
      "outputs": [],
      "stateMutability": "nonpayable",
      "type": "function"
    },
    {
      "inputs": [],
      "name": "withdraw",
      "outputs": [],
      "stateMutability": "nonpayable",
      "type": "function"
    }
  ],
  "bytecode": "0x60806040526040518060400160405280600981526020017f697066733a2f2f202f0000000000000000000000000000000000000000000000815250600d9080519060200190620000519291906200034e565b506016600e556016600f5561019c6010556000601260006101000a81548160ff0219169083151502179055506000601260016101000a81548160ff021916908315150217905550348015620000a557600080fd5b50604051620065d2380380620065d28339818101604052810190620000cb919062000470565b6040518060400160405280601581526020017f41204d79737465727920437562657320436c75622100000000000000000000008152506040518060400160405280600481526020017f4d5953430000000000000000000000000000000000000000000000000000000081525081600090805190602001906200014f9291906200034e565b508060019080519060200190620001689291906200034e565b5050506200018b6200017f620001ab60201b60201c565b620001b360201b60201c565b6001600c81905550620001a4816200027960201b60201c565b50620006a8565b600033905090565b6000600b60009054906101000a900473ffffffffffffffffffffffffffffffffffffffff16905081600b60006101000a81548173ffffffffffffffffffffffffffffffffffffffff021916908373ffffffffffffffffffffffffffffffffffffffff1602179055508173ffffffffffffffffffffffffffffffffffffffff168173ffffffffffffffffffffffffffffffffffffffff167f8be0079c531659141344cd1fd0a4f28419497f9722a3daafe3b4186f6b6457e060405160405180910390a35050565b62000289620001ab60201b60201c565b73ffffffffffffffffffffffffffffffffffffffff16620002af6200032460201b60201c565b73ffffffffffffffffffffffffffffffffffffffff161462000308576040517f08c379a0000000000000000000000000000000000000000000000000000000008152600401620002ff90620004dc565b60405180910390fd5b80600d9080519060200190620003209291906200034e565b5050565b6000600b60009054906101000a900473ffffffffffffffffffffffffffffffffffffffff16905090565b8280546200035c90620005a4565b90600052602060002090601f016020900481019282620003805760008555620003cc565b82601f106200039b57805160ff1916838001178555620003cc565b82800160010185558215620003cc579182015b82811115620003cb578251825591602001919060010190620003ae565b5b509050620003db9190620003df565b5090565b5b80821115620003fa576000816000905550600101620003e0565b5090565b6000620004156200040f8462000527565b620004fe565b9050828152602081018484840111156200042e57600080fd5b6200043b8482856200056e565b509392505050565b600082601f8301126200045557600080fd5b815162000467848260208601620003fe565b91505092915050565b6000602082840312156200048357600080fd5b600082015167ffffffffffffffff8111156200049e57600080fd5b620004ac8482850162000443565b91505092915050565b6000620004c46020836200055d565b9150620004d1826200067f565b602082019050919050565b60006020820190508181036000830152620004f781620004b5565b9050919050565b60006200050a6200051d565b9050620005188282620005da565b919050565b6000604051905090565b600067ffffffffffffffff8211156200054557620005446200063f565b5b62000550826200066e565b9050602081019050919050565b600082825260208201905092915050565b60005b838110156200058e57808201518184015260208101905062000571565b838111156200059e576000848401525b50505050565b60006002820490506001821680620005bd57607f821691505b60208210811415620005d457620005d362000610565b5b50919050565b620005e5826200066e565b810181811067ffffffffffffffff821117156200060757620006066200063f565b5b80604052505050565b7f4e487b7100000000000000000000000000000000000000000000000000000000600052602260045260246000fd5b7f4e487b7100000000000000000000000000000000000000000000000000000000600052604160045260246000fd5b6000601f19601f8301169050919050565b7f4f776e61626c653a2063616c6c6572206973206e6f7420746865206f776e6572600082015250565b615f1a80620006b86000396000f3fe6080604052600436106102ae5760003560e01c80636c0360eb116101755780639b894703116100dc578063d20fe21911610095578063ed44dba41161006f578063ed44dba414610acd578063f2fde38b14610af6578063f54d5df814610b1f578063f7b0c02a14610b4a576102ae565b8063d20fe21914610a4e578063da60913d14610a79578063e985e9c514610a90576102ae565b80639b8947031461093e578063a035b1fe14610969578063a22cb46514610994578063b88d4fde146109bd578063c87b56dd146109e6578063cad4941b14610a23576102ae565b80637ec602d01161012e5780637ec602d01461082e57806383cb0191146108575780638b63de00146108945780638da5cb5b146108bd57806395d89b41146108e85780639a4c715914610913576102ae565b80636c0360eb1461072e5780636ed850a61461075957806370a0823114610784578063715018a6146107c157806374591952146107d857806377b44be3146107ef576102ae565b8063397ee788116102195780634c84060d116101d25780634c84060d1461060c5780634f6ccce71461063757806355bded7c146106745780635630924e1461069f5780636352211e146106c857806368c7aa7814610705576102ae565b8063397ee788146104ec5780633ccfd60b146105295780633dcc73ad1461054057806340020bd31461057d57806342842e0e146105ba5780634a44f379146105e3576102ae565b806318160ddd1161026b57806318160ddd146103d75780631d8efd5c146104025780631dc1d8761461043f57806323b872dd146104495780632772dcd4146104725780632f745c59146104af576102ae565b806301ffc9a7146102b357806306fdde03146102f0578063081812fc1461031b578063095ea7b3146103585780631644e7af14610381578063165c60b7146103ac575b600080fd5b3480156102bf57600080fd5b506102da60048036038101906102d591906145f6565b610b73565b6040516102e79190614edd565b60405180910390f35b3480156102fc57600080fd5b50610305610b85565b6040516103129190614ef8565b60405180910390f35b34801561032757600080fd5b50610342600480360381019061033d9190614689565b610c17565b60405161034f9190614ded565b60405180910390f35b34801561036457600080fd5b5061037f600480360381019061037a9190614591565b610c9c565b005b34801561038d57600080fd5b50610396610db4565b6040516103a391906152e6565b60405180910390f35b3480156103b857600080fd5b506103c1610dba565b6040516103ce9190614ebb565b60405180910390f35b3480156103e357600080fd5b506103ec610f47565b6040516103f991906152e6565b60405180910390f35b34801561040e57600080fd5b5061042960048036038101906104249190614689565b610f54565b6040516104369190614ef8565b60405180910390f35b610447610ff4565b005b34801561045557600080fd5b50610470600480360381019061046b919061448b565b6111c6565b005b34801561047e57600080fd5b5061049960048036038101906104949190614689565b611226565b6040516104a69190614ef8565b60405180910390f35b3480156104bb57600080fd5b506104d660048036038101906104d19190614591565b611314565b6040516104e391906152e6565b60405180910390f35b3480156104f857600080fd5b50610513600480360381019061050e9190614426565b6113b9565b60405161052091906152e6565b60405180910390f35b34801561053557600080fd5b5061053e6113d1565b005b34801561054c57600080fd5b5061056760048036038101906105629190614689565b61149c565b6040516105749190614ef8565b60405180910390f35b34801561058957600080fd5b506105a4600480360381019061059f9190614689565b61153c565b6040516105b19190614ef8565b60405180910390f35b3480156105c657600080fd5b506105e160048036038101906105dc919061448b565b6115dc565b005b3480156105ef57600080fd5b5061060a60048036038101906106059190614648565b6115fc565b005b34801561061857600080fd5b50610621611692565b60405161062e9190614ebb565b60405180910390f35b34801561064357600080fd5b5061065e60048036038101906106599190614689565b61181f565b60405161066b91906152e6565b60405180910390f35b34801561068057600080fd5b506106896118b6565b6040516106969190614edd565b60405180910390f35b3480156106ab57600080fd5b506106c660048036038101906106c191906146b2565b6118c9565b005b3480156106d457600080fd5b506106ef60048036038101906106ea9190614689565b611a99565b6040516106fc9190614ded565b60405180910390f35b34801561071157600080fd5b5061072c60048036038101906107279190614591565b611b4b565b005b34801561073a57600080fd5b50610743611c78565b6040516107509190614ef8565b60405180910390f35b34801561076557600080fd5b5061076e611d06565b60405161077b91906152e6565b60405180910390f35b34801561079057600080fd5b506107ab60048036038101906107a69190614426565b611d0c565b6040516107b891906152e6565b60405180910390f35b3480156107cd57600080fd5b506107d6611dc4565b005b3480156107e457600080fd5b506107ed611e4c565b005b3480156107fb57600080fd5b5061081660048036038101906108119190614689565b611ef4565b60405161082593929190614f1a565b60405180910390f35b34801561083a57600080fd5b50610855600480360381019061085091906146b2565b61212c565b005b34801561086357600080fd5b5061087e60048036038101906108799190614689565b6122fc565b60405161088b9190614ef8565b60405180910390f35b3480156108a057600080fd5b506108bb60048036038101906108b69190614689565b61239c565b005b3480156108c957600080fd5b506108d26123f8565b6040516108df9190614ded565b60405180910390f35b3480156108f457600080fd5b506108fd612422565b60405161090a9190614ef8565b60405180910390f35b34801561091f57600080fd5b506109286124b4565b60405161093591906152e6565b60405180910390f35b34801561094a57600080fd5b506109536124fb565b60405161096091906152e6565b60405180910390f35b34801561097557600080fd5b5061097e612501565b60405161098b91906152e6565b60405180910390f35b3480156109a057600080fd5b506109bb60048036038101906109b69190614555565b61250c565b005b3480156109c957600080fd5b506109e460048036038101906109df91906144da565b61268d565b005b3480156109f257600080fd5b50610a0d6004803603810190610a089190614689565b6126ef565b604051610a1a9190614ef8565b60405180910390f35b348015610a2f57600080fd5b50610a38612723565b604051610a4591906152e6565b60405180910390f35b348015610a5a57600080fd5b50610a63612729565b604051610a709190614edd565b60405180910390f35b348015610a8557600080fd5b50610a8e61273c565b005b348015610a9c57600080fd5b50610ab76004803603810190610ab2919061444f565b6127e4565b604051610ac49190614edd565b60405180910390f35b348015610ad957600080fd5b50610af46004803603810190610aef91906146b2565b612878565b005b348015610b0257600080fd5b50610b1d6004803603810190610b189190614426565b612a48565b005b348015610b2b57600080fd5b50610b34612b40565b604051610b419190614ebb565b60405180910390f35b348015610b5657600080fd5b50610b716004803603810190610b6c91906146b2565b612ccd565b005b6000610b7e82612e9d565b9050919050565b606060008054610b94906155c5565b80601f0160208091040260200160405190810160405280929190818152602001828054610bc0906155c5565b8015610c0d5780601f10610be257610100808354040283529160200191610c0d565b820191906000526020600020905b815481529060010190602001808311610bf057829003601f168201915b5050505050905090565b6000610c2282612f17565b610c61576040517f08c379a0000000000000000000000000000000000000000000000000000000008152600401610c5890615186565b60405180910390fd5b6004600083815260200190815260200160002060009054906101000a900473ffffffffffffffffffffffffffffffffffffffff169050919050565b6000610ca782611a99565b90508073ffffffffffffffffffffffffffffffffffffffff168373ffffffffffffffffffffffffffffffffffffffff161415610d18576040517f08c379a0000000000000000000000000000000000000000000000000000000008152600401610d0f90615226565b60405180910390fd5b8073ffffffffffffffffffffffffffffffffffffffff16610d37612f83565b73ffffffffffffffffffffffffffffffffffffffff161480610d665750610d6581610d60612f83565b6127e4565b5b610da5576040517f08c379a0000000000000000000000000000000000000000000000000000000008152600401610d9c906150c6565b60405180910390fd5b610daf8383612f8b565b505050565b600f5481565b60606000610dc6610f47565b905060008167ffffffffffffffff811115610e0a577f4e487b7100000000000000000000000000000000000000000000000000000000600052604160045260246000fd5b604051908082528060200260200182016040528015610e3d57816020015b6060815260200190600190039081610e285790505b50905060005b82811015610f3e57601660008281526020019081526020016000208054610e69906155c5565b80601f0160208091040260200160405190810160405280929190818152602001828054610e95906155c5565b8015610ee25780601f10610eb757610100808354040283529160200191610ee2565b820191906000526020600020905b815481529060010190602001808311610ec557829003601f168201915b5050505050828281518110610f20577f4e487b7100000000000000000000000000000000000000000000000000000000600052603260045260246000fd5b60200260200101819052508080610f3690615628565b915050610e43565b81935050505090565b6000600880549050905090565b60146020528060005260406000206000915090508054610f73906155c5565b80601f0160208091040260200160405190810160405280929190818152602001828054610f9f906155c5565b8015610fec5780601f10610fc157610100808354040283529160200191610fec565b820191906000526020600020905b815481529060010190602001808311610fcf57829003601f168201915b505050505081565b601260009054906101000a900460ff16611043576040517f08c379a000000000000000000000000000000000000000000000000000000000815260040161103a90614fe6565b60405180910390fd5b601054600f5410611089576040517f08c379a000000000000000000000000000000000000000000000000000000000815260040161108090615246565b60405180910390fd5b6658d15e1762800034146110d2576040517f08c379a00000000000000000000000000000000000000000000000000000000081526004016110c990614f66565b60405180910390fd5b601054600f5410156111c457600f60008154809291906110f190615628565b9190505550601160003373ffffffffffffffffffffffffffffffffffffffff1673ffffffffffffffffffffffffffffffffffffffff168152602001908152602001600020600081548092919061114690615628565b91905055507f97b43b18827c45fb871f910526e4d939a0e800e9a27bb9e0cbb6cba831f8432a33601160003373ffffffffffffffffffffffffffffffffffffffff1673ffffffffffffffffffffffffffffffffffffffff168152602001908152602001600020546040516111bb929190614e54565b60405180910390a15b565b6111d76111d1612f83565b82613044565b611216576040517f08c379a000000000000000000000000000000000000000000000000000000000815260040161120d90615266565b60405180910390fd5b611221838383613122565b505050565b6060611230610f47565b8210611271576040517f08c379a000000000000000000000000000000000000000000000000000000000815260040161126890615286565b60405180910390fd5b60166000838152602001908152602001600020805461128f906155c5565b80601f01602080910402602001604051908101604052809291908181526020018280546112bb906155c5565b80156113085780601f106112dd57610100808354040283529160200191611308565b820191906000526020600020905b8154815290600101906020018083116112eb57829003601f168201915b50505050509050919050565b600061131f83611d0c565b8210611360576040517f08c379a000000000000000000000000000000000000000000000000000000000815260040161135790614f86565b60405180910390fd5b600660008473ffffffffffffffffffffffffffffffffffffffff1673ffffffffffffffffffffffffffffffffffffffff168152602001908152602001600020600083815260200190815260200160002054905092915050565b60116020528060005260406000206000915090505481565b6113d9612f83565b73ffffffffffffffffffffffffffffffffffffffff166113f76123f8565b73ffffffffffffffffffffffffffffffffffffffff161461144d576040517f08c379a0000000000000000000000000000000000000000000000000000000008152600401611444906151a6565b60405180910390fd5b60004790503373ffffffffffffffffffffffffffffffffffffffff166108fc829081150290604051600060405180830381858888f19350505050158015611498573d6000803e3d6000fd5b5050565b601660205280600052604060002060009150905080546114bb906155c5565b80601f01602080910402602001604051908101604052809291908181526020018280546114e7906155c5565b80156115345780601f1061150957610100808354040283529160200191611534565b820191906000526020600020905b81548152906001019060200180831161151757829003601f168201915b505050505081565b6015602052806000526040600020600091509050805461155b906155c5565b80601f0160208091040260200160405190810160405280929190818152602001828054611587906155c5565b80156115d45780601f106115a9576101008083540402835291602001916115d4565b820191906000526020600020905b8154815290600101906020018083116115b757829003601f168201915b505050505081565b6115f78383836040518060200160405280600081525061268d565b505050565b611604612f83565b73ffffffffffffffffffffffffffffffffffffffff166116226123f8565b73ffffffffffffffffffffffffffffffffffffffff1614611678576040517f08c379a000000000000000000000000000000000000000000000000000000000815260040161166f906151a6565b60405180910390fd5b80600d908051906020019061168e929190614235565b5050565b6060600061169e610f47565b905060008167ffffffffffffffff8111156116e2577f4e487b7100000000000000000000000000000000000000000000000000000000600052604160045260246000fd5b60405190808252806020026020018201604052801561171557816020015b60608152602001906001900390816117005790505b50905060005b8281101561181657601360008281526020019081526020016000208054611741906155c5565b80601f016020809104026020016040519081016040528092919081815260200182805461176d906155c5565b80156117ba5780601f1061178f576101008083540402835291602001916117ba565b820191906000526020600020905b81548152906001019060200180831161179d57829003601f168201915b50505050508282815181106117f8577f4e487b7100000000000000000000000000000000000000000000000000000000600052603260045260246000fd5b6020026020010181905250808061180e90615628565b91505061171b565b81935050505090565b6000611829610f47565b821061186a576040517f08c379a0000000000000000000000000000000000000000000000000000000008152600401611861906152a6565b60405180910390fd5b600882815481106118a4577f4e487b7100000000000000000000000000000000000000000000000000000000600052603260045260246000fd5b90600052602060002001549050919050565b601260009054906101000a900460ff1681565b3373ffffffffffffffffffffffffffffffffffffffff166118e983611a99565b73ffffffffffffffffffffffffffffffffffffffff161461193f576040517f08c379a0000000000000000000000000000000000000000000000000000000008152600401611936906150a6565b60405180910390fd5b6002601560008481526020019081526020016000206040516119619190614db2565b602060405180830381855afa15801561197e573d6000803e3d6000fd5b5050506040513d601f19601f820116820180604052508101906119a191906145cd565b6002826040516119b19190614d9b565b602060405180830381855afa1580156119ce573d6000803e3d6000fd5b5050506040513d601f19601f820116820180604052508101906119f191906145cd565b1415611a32576040517f08c379a0000000000000000000000000000000000000000000000000000000008152600401611a2990615126565b60405180910390fd5b80601560008481526020019081526020016000209080519060200190611a59929190614235565b507fe9a2bdc6bd37de52da67c2e330d7469896f513eb5a974ab391f7fb5b3c6d1911338383604051611a8d93929190614e7d565b60405180910390a15050565b6000806002600084815260200190815260200160002060009054906101000a900473ffffffffffffffffffffffffffffffffffffffff169050600073ffffffffffffffffffffffffffffffffffffffff168173ffffffffffffffffffffffffffffffffffffffff161415611b42576040517f08c379a0000000000000000000000000000000000000000000000000000000008152600401611b3990615106565b60405180910390fd5b80915050919050565b611b53612f83565b73ffffffffffffffffffffffffffffffffffffffff16611b716123f8565b73ffffffffffffffffffffffffffffffffffffffff1614611bc7576040517f08c379a0000000000000000000000000000000000000000000000000000000008152600401611bbe906151a6565b60405180910390fd5b6000611bd1610f47565b9050600082118015611be55750600e548211155b611c24576040517f08c379a0000000000000000000000000000000000000000000000000000000008152600401611c1b90615206565b60405180910390fd5b60005b82811015611c5757611c44848284611c3f919061544a565b61337e565b8080611c4f90615628565b915050611c27565b50611c6d82600e5461339c90919063ffffffff16565b600e81905550505050565b600d8054611c85906155c5565b80601f0160208091040260200160405190810160405280929190818152602001828054611cb1906155c5565b8015611cfe5780601f10611cd357610100808354040283529160200191611cfe565b820191906000526020600020905b815481529060010190602001808311611ce157829003601f168201915b505050505081565b61019c81565b60008073ffffffffffffffffffffffffffffffffffffffff168273ffffffffffffffffffffffffffffffffffffffff161415611d7d576040517f08c379a0000000000000000000000000000000000000000000000000000000008152600401611d74906150e6565b60405180910390fd5b600360008373ffffffffffffffffffffffffffffffffffffffff1673ffffffffffffffffffffffffffffffffffffffff168152602001908152602001600020549050919050565b611dcc612f83565b73ffffffffffffffffffffffffffffffffffffffff16611dea6123f8565b73ffffffffffffffffffffffffffffffffffffffff1614611e40576040517f08c379a0000000000000000000000000000000000000000000000000000000008152600401611e37906151a6565b60405180910390fd5b611e4a60006133b2565b565b611e54612f83565b73ffffffffffffffffffffffffffffffffffffffff16611e726123f8565b73ffffffffffffffffffffffffffffffffffffffff1614611ec8576040517f08c379a0000000000000000000000000000000000000000000000000000000008152600401611ebf906151a6565b60405180910390fd5b601260009054906101000a900460ff1615601260006101000a81548160ff021916908315150217905550565b6060806060611f01610f47565b8410611f42576040517f08c379a0000000000000000000000000000000000000000000000000000000008152600401611f3990615286565b60405180910390fd5b601360008581526020019081526020016000206014600086815260200190815260200160002060156000878152602001908152602001600020828054611f87906155c5565b80601f0160208091040260200160405190810160405280929190818152602001828054611fb3906155c5565b80156120005780601f10611fd557610100808354040283529160200191612000565b820191906000526020600020905b815481529060010190602001808311611fe357829003601f168201915b50505050509250818054612013906155c5565b80601f016020809104026020016040519081016040528092919081815260200182805461203f906155c5565b801561208c5780601f106120615761010080835404028352916020019161208c565b820191906000526020600020905b81548152906001019060200180831161206f57829003601f168201915b5050505050915080805461209f906155c5565b80601f01602080910402602001604051908101604052809291908181526020018280546120cb906155c5565b80156121185780601f106120ed57610100808354040283529160200191612118565b820191906000526020600020905b8154815290600101906020018083116120fb57829003601f168201915b505050505090509250925092509193909250565b3373ffffffffffffffffffffffffffffffffffffffff1661214c83611a99565b73ffffffffffffffffffffffffffffffffffffffff16146121a2576040517f08c379a0000000000000000000000000000000000000000000000000000000008152600401612199906150a6565b60405180910390fd5b6002601460008481526020019081526020016000206040516121c49190614db2565b602060405180830381855afa1580156121e1573d6000803e3d6000fd5b5050506040513d601f19601f8201168201806040525081019061220491906145cd565b6002826040516122149190614d9b565b602060405180830381855afa158015612231573d6000803e3d6000fd5b5050506040513d601f19601f8201168201806040525081019061225491906145cd565b1415612295576040517f08c379a000000000000000000000000000000000000000000000000000000000815260040161228c90615126565b60405180910390fd5b806014600084815260200190815260200160002090805190602001906122bc929190614235565b507f95e6cb9336922737a2be77a45e92ca36d12653b6afe121205134334f5022b8763383836040516122f093929190614e7d565b60405180910390a15050565b6013602052806000526040600020600091509050805461231b906155c5565b80601f0160208091040260200160405190810160405280929190818152602001828054612347906155c5565b80156123945780601f1061236957610100808354040283529160200191612394565b820191906000526020600020905b81548152906001019060200180831161237757829003601f168201915b505050505081565b601260019054906101000a900460ff166123eb576040517f08c379a00000000000000000000000000000000000000000000000000000000081526004016123e290615166565b60405180910390fd5b6123f53382613478565b50565b6000600b60009054906101000a900473ffffffffffffffffffffffffffffffffffffffff16905090565b606060018054612431906155c5565b80601f016020809104026020016040519081016040528092919081815260200182805461245d906155c5565b80156124aa5780601f1061247f576101008083540402835291602001916124aa565b820191906000526020600020905b81548152906001019060200180831161248d57829003601f168201915b5050505050905090565b6000601160003373ffffffffffffffffffffffffffffffffffffffff1673ffffffffffffffffffffffffffffffffffffffff16815260200190815260200160002054905090565b60105481565b6658d15e1762800081565b612514612f83565b73ffffffffffffffffffffffffffffffffffffffff168273ffffffffffffffffffffffffffffffffffffffff161415612582576040517f08c379a000000000000000000000000000000000000000000000000000000000815260040161257990615066565b60405180910390fd5b806005600061258f612f83565b73ffffffffffffffffffffffffffffffffffffffff1673ffffffffffffffffffffffffffffffffffffffff16815260200190815260200160002060008473ffffffffffffffffffffffffffffffffffffffff1673ffffffffffffffffffffffffffffffffffffffff16815260200190815260200160002060006101000a81548160ff0219169083151502179055508173ffffffffffffffffffffffffffffffffffffffff1661263c612f83565b73ffffffffffffffffffffffffffffffffffffffff167f17307eab39ab6107e8899845ad3d59bd9653f200f220920489ca2b5937696c31836040516126819190614edd565b60405180910390a35050565b61269e612698612f83565b83613044565b6126dd576040517f08c379a00000000000000000000000000000000000000000000000000000000081526004016126d490615266565b60405180910390fd5b6126e9848484846135be565b50505050565b6060600d6126fc8361361a565b60405160200161270d929190614dc9565b6040516020818303038152906040529050919050565b600e5481565b601260019054906101000a900460ff1681565b612744612f83565b73ffffffffffffffffffffffffffffffffffffffff166127626123f8565b73ffffffffffffffffffffffffffffffffffffffff16146127b8576040517f08c379a00000000000000000000000000000000000000000000000000000000081526004016127af906151a6565b60405180910390fd5b601260019054906101000a900460ff1615601260016101000a81548160ff021916908315150217905550565b6000600560008473ffffffffffffffffffffffffffffffffffffffff1673ffffffffffffffffffffffffffffffffffffffff16815260200190815260200160002060008373ffffffffffffffffffffffffffffffffffffffff1673ffffffffffffffffffffffffffffffffffffffff16815260200190815260200160002060009054906101000a900460ff16905092915050565b3373ffffffffffffffffffffffffffffffffffffffff1661289883611a99565b73ffffffffffffffffffffffffffffffffffffffff16146128ee576040517f08c379a00000000000000000000000000000000000000000000000000000000081526004016128e5906150a6565b60405180910390fd5b6002601360008481526020019081526020016000206040516129109190614db2565b602060405180830381855afa15801561292d573d6000803e3d6000fd5b5050506040513d601f19601f8201168201806040525081019061295091906145cd565b6002826040516129609190614d9b565b602060405180830381855afa15801561297d573d6000803e3d6000fd5b5050506040513d601f19601f820116820180604052508101906129a091906145cd565b14156129e1576040517f08c379a00000000000000000000000000000000000000000000000000000000081526004016129d890615126565b60405180910390fd5b80601360008481526020019081526020016000209080519060200190612a08929190614235565b507fa1a544425f9e0d385cfe2d2948af53e05d78f15eb8ba584807741a74f4fc97e4338383604051612a3c93929190614e7d565b60405180910390a15050565b612a50612f83565b73ffffffffffffffffffffffffffffffffffffffff16612a6e6123f8565b73ffffffffffffffffffffffffffffffffffffffff1614612ac4576040517f08c379a0000000000000000000000000000000000000000000000000000000008152600401612abb906151a6565b60405180910390fd5b600073ffffffffffffffffffffffffffffffffffffffff168173ffffffffffffffffffffffffffffffffffffffff161415612b34576040517f08c379a0000000000000000000000000000000000000000000000000000000008152600401612b2b90614fc6565b60405180910390fd5b612b3d816133b2565b50565b60606000612b4c610f47565b905060008167ffffffffffffffff811115612b90577f4e487b7100000000000000000000000000000000000000000000000000000000600052604160045260246000fd5b604051908082528060200260200182016040528015612bc357816020015b6060815260200190600190039081612bae5790505b50905060005b82811015612cc457601460008281526020019081526020016000208054612bef906155c5565b80601f0160208091040260200160405190810160405280929190818152602001828054612c1b906155c5565b8015612c685780601f10612c3d57610100808354040283529160200191612c68565b820191906000526020600020905b815481529060010190602001808311612c4b57829003601f168201915b5050505050828281518110612ca6577f4e487b7100000000000000000000000000000000000000000000000000000000600052603260045260246000fd5b60200260200101819052508080612cbc90615628565b915050612bc9565b81935050505090565b3373ffffffffffffffffffffffffffffffffffffffff16612ced83611a99565b73ffffffffffffffffffffffffffffffffffffffff1614612d43576040517f08c379a0000000000000000000000000000000000000000000000000000000008152600401612d3a906150a6565b60405180910390fd5b600260166000848152602001908152602001600020604051612d659190614db2565b602060405180830381855afa158015612d82573d6000803e3d6000fd5b5050506040513d601f19601f82011682018060405250810190612da591906145cd565b600282604051612db59190614d9b565b602060405180830381855afa158015612dd2573d6000803e3d6000fd5b5050506040513d601f19601f82011682018060405250810190612df591906145cd565b1415612e36576040517f08c379a0000000000000000000000000000000000000000000000000000000008152600401612e2d90615126565b60405180910390fd5b80601660008481526020019081526020016000209080519060200190612e5d929190614235565b507f1bde18ba37c743765341dcb71667b1871987d4138646f5b715004cff0e958e4d338383604051612e9193929190614e7d565b60405180910390a15050565b60007f780e9d63000000000000000000000000000000000000000000000000000000007bffffffffffffffffffffffffffffffffffffffffffffffffffffffff1916827bffffffffffffffffffffffffffffffffffffffffffffffffffffffff19161480612f105750612f0f826137c7565b5b9050919050565b60008073ffffffffffffffffffffffffffffffffffffffff166002600084815260200190815260200160002060009054906101000a900473ffffffffffffffffffffffffffffffffffffffff1673ffffffffffffffffffffffffffffffffffffffff1614159050919050565b600033905090565b816004600083815260200190815260200160002060006101000a81548173ffffffffffffffffffffffffffffffffffffffff021916908373ffffffffffffffffffffffffffffffffffffffff160217905550808273ffffffffffffffffffffffffffffffffffffffff16612ffe83611a99565b73ffffffffffffffffffffffffffffffffffffffff167f8c5be1e5ebec7d5bd14f71427d1e84f3dd0314c0f7b2291e5b200ac8c7c3b92560405160405180910390a45050565b600061304f82612f17565b61308e576040517f08c379a000000000000000000000000000000000000000000000000000000000815260040161308590615086565b60405180910390fd5b600061309983611a99565b90508073ffffffffffffffffffffffffffffffffffffffff168473ffffffffffffffffffffffffffffffffffffffff16148061310857508373ffffffffffffffffffffffffffffffffffffffff166130f084610c17565b73ffffffffffffffffffffffffffffffffffffffff16145b80613119575061311881856127e4565b5b91505092915050565b8273ffffffffffffffffffffffffffffffffffffffff1661314282611a99565b73ffffffffffffffffffffffffffffffffffffffff1614613198576040517f08c379a000000000000000000000000000000000000000000000000000000000815260040161318f906151c6565b60405180910390fd5b600073ffffffffffffffffffffffffffffffffffffffff168273ffffffffffffffffffffffffffffffffffffffff161415613208576040517f08c379a00000000000000000000000000000000000000000000000000000000081526004016131ff90615046565b60405180910390fd5b6132138383836138a9565b61321e600082612f8b565b6001600360008573ffffffffffffffffffffffffffffffffffffffff1673ffffffffffffffffffffffffffffffffffffffff168152602001908152602001600020600082825461326e91906154d1565b925050819055506001600360008473ffffffffffffffffffffffffffffffffffffffff1673ffffffffffffffffffffffffffffffffffffffff16815260200190815260200160002060008282546132c5919061544a565b92505081905550816002600083815260200190815260200160002060006101000a81548173ffffffffffffffffffffffffffffffffffffffff021916908373ffffffffffffffffffffffffffffffffffffffff160217905550808273ffffffffffffffffffffffffffffffffffffffff168473ffffffffffffffffffffffffffffffffffffffff167fddf252ad1be2c89b69c2b068fc378daa952ba7f163c4a11628f55a4df523b3ef60405160405180910390a4505050565b6133988282604051806020016040528060008152506138b9565b5050565b600081836133aa91906154d1565b905092915050565b6000600b60009054906101000a900473ffffffffffffffffffffffffffffffffffffffff16905081600b60006101000a81548173ffffffffffffffffffffffffffffffffffffffff021916908373ffffffffffffffffffffffffffffffffffffffff1602179055508173ffffffffffffffffffffffffffffffffffffffff168173ffffffffffffffffffffffffffffffffffffffff167f8be0079c531659141344cd1fd0a4f28419497f9722a3daafe3b4186f6b6457e060405160405180910390a35050565b600081116134bb576040517f08c379a00000000000000000000000000000000000000000000000000000000081526004016134b290615026565b60405180910390fd5b601160008373ffffffffffffffffffffffffffffffffffffffff1673ffffffffffffffffffffffffffffffffffffffff1681526020019081526020016000205481111561353d576040517f08c379a0000000000000000000000000000000000000000000000000000000008152600401613534906152c6565b60405180910390fd5b80601160008473ffffffffffffffffffffffffffffffffffffffff1673ffffffffffffffffffffffffffffffffffffffff168152602001908152602001600020600082825461358c91906154d1565b9250508190555060005b818110156135b9576135a6613914565b80806135b190615628565b915050613596565b505050565b6135c9848484613122565b6135d5848484846139c2565b613614576040517f08c379a000000000000000000000000000000000000000000000000000000000815260040161360b90614fa6565b60405180910390fd5b50505050565b60606000821415613662576040518060400160405280600181526020017f300000000000000000000000000000000000000000000000000000000000000081525090506137c2565b600082905060005b6000821461369457808061367d90615628565b915050600a8261368d91906154a0565b915061366a565b60008167ffffffffffffffff8111156136d6577f4e487b7100000000000000000000000000000000000000000000000000000000600052604160045260246000fd5b6040519080825280601f01601f1916602001820160405280156137085781602001600182028036833780820191505090505b5090505b600085146137bb5760018261372191906154d1565b9150600a856137309190615671565b603061373c919061544a565b60f81b818381518110613778577f4e487b7100000000000000000000000000000000000000000000000000000000600052603260045260246000fd5b60200101907effffffffffffffffffffffffffffffffffffffffffffffffffffffffffffff1916908160001a905350600a856137b491906154a0565b945061370c565b8093505050505b919050565b60007f80ac58cd000000000000000000000000000000000000000000000000000000007bffffffffffffffffffffffffffffffffffffffffffffffffffffffff1916827bffffffffffffffffffffffffffffffffffffffffffffffffffffffff1916148061389257507f5b5e139f000000000000000000000000000000000000000000000000000000007bffffffffffffffffffffffffffffffffffffffffffffffffffffffff1916827bffffffffffffffffffffffffffffffffffffffffffffffffffffffff1916145b806138a257506138a182613b59565b5b9050919050565b6138b4838383613bc3565b505050565b6138c38383613cd7565b6138d060008484846139c2565b61390f576040517f08c379a000000000000000000000000000000000000000000000000000000000815260040161390690614fa6565b60405180910390fd5b505050565b61019c61391f610f47565b1115613960576040517f08c379a0000000000000000000000000000000000000000000000000000000008152600401613957906151e6565b60405180910390fd5b600061396a610f47565b905061019c613977610f47565b101561398857613987338261337e565b5b7f88868eccf0e408e2d6066dfe181683dc057c3cedc7263a6e28381ef033ff39a3336040516139b79190614ded565b60405180910390a150565b60006139e38473ffffffffffffffffffffffffffffffffffffffff16613ea5565b15613b4c578373ffffffffffffffffffffffffffffffffffffffff1663150b7a02613a0c612f83565b8786866040518563ffffffff1660e01b8152600401613a2e9493929190614e08565b602060405180830381600087803b158015613a4857600080fd5b505af1925050508015613a7957506040513d601f19601f82011682018060405250810190613a76919061461f565b60015b613afc573d8060008114613aa9576040519150601f19603f3d011682016040523d82523d6000602084013e613aae565b606091505b50600081511415613af4576040517f08c379a0000000000000000000000000000000000000000000000000000000008152600401613aeb90614fa6565b60405180910390fd5b805181602001fd5b63150b7a0260e01b7bffffffffffffffffffffffffffffffffffffffffffffffffffffffff1916817bffffffffffffffffffffffffffffffffffffffffffffffffffffffff191614915050613b51565b600190505b949350505050565b60007f01ffc9a7000000000000000000000000000000000000000000000000000000007bffffffffffffffffffffffffffffffffffffffffffffffffffffffff1916827bffffffffffffffffffffffffffffffffffffffffffffffffffffffff1916149050919050565b613bce838383613eb8565b600073ffffffffffffffffffffffffffffffffffffffff168373ffffffffffffffffffffffffffffffffffffffff161415613c1157613c0c81613ebd565b613c50565b8173ffffffffffffffffffffffffffffffffffffffff168373ffffffffffffffffffffffffffffffffffffffff1614613c4f57613c4e8382613f06565b5b5b600073ffffffffffffffffffffffffffffffffffffffff168273ffffffffffffffffffffffffffffffffffffffff161415613c9357613c8e81614073565b613cd2565b8273ffffffffffffffffffffffffffffffffffffffff168273ffffffffffffffffffffffffffffffffffffffff1614613cd157613cd082826141b6565b5b5b505050565b600073ffffffffffffffffffffffffffffffffffffffff168273ffffffffffffffffffffffffffffffffffffffff161415613d47576040517f08c379a0000000000000000000000000000000000000000000000000000000008152600401613d3e90615146565b60405180910390fd5b613d5081612f17565b15613d90576040517f08c379a0000000000000000000000000000000000000000000000000000000008152600401613d8790615006565b60405180910390fd5b613d9c600083836138a9565b6001600360008473ffffffffffffffffffffffffffffffffffffffff1673ffffffffffffffffffffffffffffffffffffffff1681526020019081526020016000206000828254613dec919061544a565b92505081905550816002600083815260200190815260200160002060006101000a81548173ffffffffffffffffffffffffffffffffffffffff021916908373ffffffffffffffffffffffffffffffffffffffff160217905550808273ffffffffffffffffffffffffffffffffffffffff16600073ffffffffffffffffffffffffffffffffffffffff167fddf252ad1be2c89b69c2b068fc378daa952ba7f163c4a11628f55a4df523b3ef60405160405180910390a45050565b600080823b905060008111915050919050565b505050565b6008805490506009600083815260200190815260200160002081905550600881908060018154018082558091505060019003906000526020600020016000909190919091505550565b60006001613f1384611d0c565b613f1d91906154d1565b9050600060076000848152602001908152602001600020549050818114614002576000600660008673ffffffffffffffffffffffffffffffffffffffff1673ffffffffffffffffffffffffffffffffffffffff168152602001908152602001600020600084815260200190815260200160002054905080600660008773ffffffffffffffffffffffffffffffffffffffff1673ffffffffffffffffffffffffffffffffffffffff168152602001908152602001600020600084815260200190815260200160002081905550816007600083815260200190815260200160002081905550505b6007600084815260200190815260200160002060009055600660008573ffffffffffffffffffffffffffffffffffffffff1673ffffffffffffffffffffffffffffffffffffffff16815260200190815260200160002060008381526020019081526020016000206000905550505050565b6000600160088054905061408791906154d1565b90506000600960008481526020019081526020016000205490506000600883815481106140dd577f4e487b7100000000000000000000000000000000000000000000000000000000600052603260045260246000fd5b906000526020600020015490508060088381548110614125577f4e487b7100000000000000000000000000000000000000000000000000000000600052603260045260246000fd5b90600052602060002001819055508160096000838152602001908152602001600020819055506009600085815260200190815260200160002060009055600880548061419a577f4e487b7100000000000000000000000000000000000000000000000000000000600052603160045260246000fd5b6001900381819060005260206000200160009055905550505050565b60006141c183611d0c565b905081600660008573ffffffffffffffffffffffffffffffffffffffff1673ffffffffffffffffffffffffffffffffffffffff168152602001908152602001600020600083815260200190815260200160002081905550806007600084815260200190815260200160002081905550505050565b828054614241906155c5565b90600052602060002090601f01602090048101928261426357600085556142aa565b82601f1061427c57805160ff19168380011785556142aa565b828001600101855582156142aa579182015b828111156142a957825182559160200191906001019061428e565b5b5090506142b791906142bb565b5090565b5b808211156142d45760008160009055506001016142bc565b5090565b60006142eb6142e684615326565b615301565b90508281526020810184848401111561430357600080fd5b61430e848285615583565b509392505050565b600061432961432484615357565b615301565b90508281526020810184848401111561434157600080fd5b61434c848285615583565b509392505050565b60008135905061436381615e71565b92915050565b60008135905061437881615e88565b92915050565b60008151905061438d81615e9f565b92915050565b6000813590506143a281615eb6565b92915050565b6000815190506143b781615eb6565b92915050565b600082601f8301126143ce57600080fd5b81356143de8482602086016142d8565b91505092915050565b600082601f8301126143f857600080fd5b8135614408848260208601614316565b91505092915050565b60008135905061442081615ecd565b92915050565b60006020828403121561443857600080fd5b600061444684828501614354565b91505092915050565b6000806040838503121561446257600080fd5b600061447085828601614354565b925050602061448185828601614354565b9150509250929050565b6000806000606084860312156144a057600080fd5b60006144ae86828701614354565b93505060206144bf86828701614354565b92505060406144d086828701614411565b9150509250925092565b600080600080608085870312156144f057600080fd5b60006144fe87828801614354565b945050602061450f87828801614354565b935050604061452087828801614411565b925050606085013567ffffffffffffffff81111561453d57600080fd5b614549878288016143bd565b91505092959194509250565b6000806040838503121561456857600080fd5b600061457685828601614354565b925050602061458785828601614369565b9150509250929050565b600080604083850312156145a457600080fd5b60006145b285828601614354565b92505060206145c385828601614411565b9150509250929050565b6000602082840312156145df57600080fd5b60006145ed8482850161437e565b91505092915050565b60006020828403121561460857600080fd5b600061461684828501614393565b91505092915050565b60006020828403121561463157600080fd5b600061463f848285016143a8565b91505092915050565b60006020828403121561465a57600080fd5b600082013567ffffffffffffffff81111561467457600080fd5b614680848285016143e7565b91505092915050565b60006020828403121561469b57600080fd5b60006146a984828501614411565b91505092915050565b600080604083850312156146c557600080fd5b60006146d385828601614411565b925050602083013567ffffffffffffffff8111156146f057600080fd5b6146fc858286016143e7565b9150509250929050565b60006147128383614896565b905092915050565b61472381615505565b82525050565b6000614734826153c2565b61473e81856153f0565b93508360208202850161475085615388565b8060005b8581101561478c578484038952815161476d8582614706565b9450614778836153e3565b925060208a01995050600181019050614754565b50829750879550505050505092915050565b6147a781615517565b82525050565b60006147b8826153cd565b6147c28185615401565b93506147d2818560208601615592565b6147db8161575e565b840191505092915050565b60006147f1826153cd565b6147fb8185615412565b935061480b818560208601615592565b80840191505092915050565b60008154614824816155c5565b61482e8186615412565b94506001821660008114614849576001811461485a5761488d565b60ff1983168652818601935061488d565b61486385615398565b60005b8381101561488557815481890152600182019150602081019050614866565b838801955050505b50505092915050565b60006148a1826153d8565b6148ab818561541d565b93506148bb818560208601615592565b6148c48161575e565b840191505092915050565b60006148da826153d8565b6148e4818561542e565b93506148f4818560208601615592565b6148fd8161575e565b840191505092915050565b6000614913826153d8565b61491d818561543f565b935061492d818560208601615592565b80840191505092915050565b60008154614946816155c5565b614950818661543f565b9450600182166000811461496b576001811461497c576149af565b60ff198316865281860193506149af565b614985856153ad565b60005b838110156149a757815481890152600182019150602081019050614988565b838801955050505b50505092915050565b60006149c560158361542e565b91506149d08261576f565b602082019050919050565b60006149e8602b8361542e565b91506149f382615798565b604082019050919050565b6000614a0b60328361542e565b9150614a16826157e7565b604082019050919050565b6000614a2e60268361542e565b9150614a3982615836565b604082019050919050565b6000614a5160258361542e565b9150614a5c82615885565b604082019050919050565b6000614a74601c8361542e565b9150614a7f826158d4565b602082019050919050565b6000614a97600e8361542e565b9150614aa2826158fd565b602082019050919050565b6000614aba60248361542e565b9150614ac582615926565b604082019050919050565b6000614add60198361542e565b9150614ae882615975565b602082019050919050565b6000614b00602c8361542e565b9150614b0b8261599e565b604082019050919050565b6000614b2360278361542e565b9150614b2e826159ed565b604082019050919050565b6000614b4660388361542e565b9150614b5182615a3c565b604082019050919050565b6000614b69602a8361542e565b9150614b7482615a8b565b604082019050919050565b6000614b8c60298361542e565b9150614b9782615ada565b604082019050919050565b6000614baf600f8361542e565b9150614bba82615b29565b602082019050919050565b6000614bd260208361542e565b9150614bdd82615b52565b602082019050919050565b6000614bf560198361542e565b9150614c0082615b7b565b602082019050919050565b6000614c18602c8361542e565b9150614c2382615ba4565b604082019050919050565b6000614c3b60208361542e565b9150614c4682615bf3565b602082019050919050565b6000614c5e60298361542e565b9150614c6982615c1c565b604082019050919050565b6000614c81604f8361542e565b9150614c8c82615c6b565b606082019050919050565b6000614ca460178361542e565b9150614caf82615ce0565b602082019050919050565b6000614cc760218361542e565b9150614cd282615d09565b604082019050919050565b6000614cea60198361542e565b9150614cf582615d58565b602082019050919050565b6000614d0d60318361542e565b9150614d1882615d81565b604082019050919050565b6000614d30601a8361542e565b9150614d3b82615dd0565b602082019050919050565b6000614d53602c8361542e565b9150614d5e82615df9565b604082019050919050565b6000614d7660138361542e565b9150614d8182615e48565b602082019050919050565b614d9581615579565b82525050565b6000614da782846147e6565b915081905092915050565b6000614dbe8284614817565b915081905092915050565b6000614dd58285614939565b9150614de18284614908565b91508190509392505050565b6000602082019050614e02600083018461471a565b92915050565b6000608082019050614e1d600083018761471a565b614e2a602083018661471a565b614e376040830185614d8c565b8181036060830152614e4981846147ad565b905095945050505050565b6000604082019050614e69600083018561471a565b614e766020830184614d8c565b9392505050565b6000606082019050614e92600083018661471a565b614e9f6020830185614d8c565b8181036040830152614eb181846148cf565b9050949350505050565b60006020820190508181036000830152614ed58184614729565b905092915050565b6000602082019050614ef2600083018461479e565b92915050565b60006020820190508181036000830152614f1281846148cf565b905092915050565b60006060820190508181036000830152614f3481866148cf565b90508181036020830152614f4881856148cf565b90508181036040830152614f5c81846148cf565b9050949350505050565b60006020820190508181036000830152614f7f816149b8565b9050919050565b60006020820190508181036000830152614f9f816149db565b9050919050565b60006020820190508181036000830152614fbf816149fe565b9050919050565b60006020820190508181036000830152614fdf81614a21565b9050919050565b60006020820190508181036000830152614fff81614a44565b9050919050565b6000602082019050818103600083015261501f81614a67565b9050919050565b6000602082019050818103600083015261503f81614a8a565b9050919050565b6000602082019050818103600083015261505f81614aad565b9050919050565b6000602082019050818103600083015261507f81614ad0565b9050919050565b6000602082019050818103600083015261509f81614af3565b9050919050565b600060208201905081810360008301526150bf81614b16565b9050919050565b600060208201905081810360008301526150df81614b39565b9050919050565b600060208201905081810360008301526150ff81614b5c565b9050919050565b6000602082019050818103600083015261511f81614b7f565b9050919050565b6000602082019050818103600083015261513f81614ba2565b9050919050565b6000602082019050818103600083015261515f81614bc5565b9050919050565b6000602082019050818103600083015261517f81614be8565b9050919050565b6000602082019050818103600083015261519f81614c0b565b9050919050565b600060208201905081810360008301526151bf81614c2e565b9050919050565b600060208201905081810360008301526151df81614c51565b9050919050565b600060208201905081810360008301526151ff81614c74565b9050919050565b6000602082019050818103600083015261521f81614c97565b9050919050565b6000602082019050818103600083015261523f81614cba565b9050919050565b6000602082019050818103600083015261525f81614cdd565b9050919050565b6000602082019050818103600083015261527f81614d00565b9050919050565b6000602082019050818103600083015261529f81614d23565b9050919050565b600060208201905081810360008301526152bf81614d46565b9050919050565b600060208201905081810360008301526152df81614d69565b9050919050565b60006020820190506152fb6000830184614d8c565b92915050565b600061530b61531c565b905061531782826155f7565b919050565b6000604051905090565b600067ffffffffffffffff8211156153415761534061572f565b5b61534a8261575e565b9050602081019050919050565b600067ffffffffffffffff8211156153725761537161572f565b5b61537b8261575e565b9050602081019050919050565b6000819050602082019050919050565b60008190508160005260206000209050919050565b60008190508160005260206000209050919050565b600081519050919050565b600081519050919050565b600081519050919050565b6000602082019050919050565b600082825260208201905092915050565b600082825260208201905092915050565b600081905092915050565b600082825260208201905092915050565b600082825260208201905092915050565b600081905092915050565b600061545582615579565b915061546083615579565b9250827fffffffffffffffffffffffffffffffffffffffffffffffffffffffffffffffff03821115615495576154946156a2565b5b828201905092915050565b60006154ab82615579565b91506154b683615579565b9250826154c6576154c56156d1565b5b828204905092915050565b60006154dc82615579565b91506154e783615579565b9250828210156154fa576154f96156a2565b5b828203905092915050565b600061551082615559565b9050919050565b60008115159050919050565b6000819050919050565b60007fffffffff0000000000000000000000000000000000000000000000000000000082169050919050565b600073ffffffffffffffffffffffffffffffffffffffff82169050919050565b6000819050919050565b82818337600083830152505050565b60005b838110156155b0578082015181840152602081019050615595565b838111156155bf576000848401525b50505050565b600060028204905060018216806155dd57607f821691505b602082108114156155f1576155f0615700565b5b50919050565b6156008261575e565b810181811067ffffffffffffffff8211171561561f5761561e61572f565b5b80604052505050565b600061563382615579565b91507fffffffffffffffffffffffffffffffffffffffffffffffffffffffffffffffff821415615666576156656156a2565b5b600182019050919050565b600061567c82615579565b915061568783615579565b925082615697576156966156d1565b5b828206905092915050565b7f4e487b7100000000000000000000000000000000000000000000000000000000600052601160045260246000fd5b7f4e487b7100000000000000000000000000000000000000000000000000000000600052601260045260246000fd5b7f4e487b7100000000000000000000000000000000000000000000000000000000600052602260045260246000fd5b7f4e487b7100000000000000000000000000000000000000000000000000000000600052604160045260246000fd5b6000601f19601f8301169050919050565b7f4e6f7420656e6f7567682045746865722073656e740000000000000000000000600082015250565b7f455243373231456e756d657261626c653a206f776e657220696e646578206f7560008201527f74206f6620626f756e6473000000000000000000000000000000000000000000602082015250565b7f4552433732313a207472616e7366657220746f206e6f6e20455243373231526560008201527f63656976657220696d706c656d656e7465720000000000000000000000000000602082015250565b7f4f776e61626c653a206e6577206f776e657220697320746865207a65726f206160008201527f6464726573730000000000000000000000000000000000000000000000000000602082015250565b7f53616c65206d7573742062652061637469766520746f2061637175697265207460008201527f69636b6574000000000000000000000000000000000000000000000000000000602082015250565b7f4552433732313a20746f6b656e20616c7265616479206d696e74656400000000600082015250565b7f496e76616c696420616d6f756e74000000000000000000000000000000000000600082015250565b7f4552433732313a207472616e7366657220746f20746865207a65726f2061646460008201527f7265737300000000000000000000000000000000000000000000000000000000602082015250565b7f4552433732313a20617070726f766520746f2063616c6c657200000000000000600082015250565b7f4552433732313a206f70657261746f7220717565727920666f72206e6f6e657860008201527f697374656e7420746f6b656e0000000000000000000000000000000000000000602082015250565b7f4865792c20796f75722077616c6c657420646f65736e2774206f776e2074686960008201527f7320637562652100000000000000000000000000000000000000000000000000602082015250565b7f4552433732313a20617070726f76652063616c6c6572206973206e6f74206f7760008201527f6e6572206e6f7220617070726f76656420666f7220616c6c0000000000000000602082015250565b7f4552433732313a2062616c616e636520717565727920666f7220746865207a6560008201527f726f206164647265737300000000000000000000000000000000000000000000602082015250565b7f4552433732313a206f776e657220717565727920666f72206e6f6e657869737460008201527f656e7420746f6b656e0000000000000000000000000000000000000000000000602082015250565b7f53616d652061732063757272656e740000000000000000000000000000000000600082015250565b7f4552433732313a206d696e7420746f20746865207a65726f2061646472657373600082015250565b7f4d696e74696e67206973206e6f74206163746976652079657400000000000000600082015250565b7f4552433732313a20617070726f76656420717565727920666f72206e6f6e657860008201527f697374656e7420746f6b656e0000000000000000000000000000000000000000602082015250565b7f4f776e61626c653a2063616c6c6572206973206e6f7420746865206f776e6572600082015250565b7f4552433732313a207472616e73666572206f6620746f6b656e2074686174206960008201527f73206e6f74206f776e0000000000000000000000000000000000000000000000602082015250565b7f437269746963616c2c206d696e7420776f756c6420657863656564206d61782060008201527f737570706c79206f662043756265732c20706c6561736520636f6e746163742060208201527f64657620696d6d6564696174656c790000000000000000000000000000000000604082015250565b7f4e6f7420656e6f7567682072657365727665206c656674000000000000000000600082015250565b7f4552433732313a20617070726f76616c20746f2063757272656e74206f776e6560008201527f7200000000000000000000000000000000000000000000000000000000000000602082015250565b7f546865726520617265206e6f206d6f7265207469636b65747300000000000000600082015250565b7f4552433732313a207472616e736665722063616c6c6572206973206e6f74206f60008201527f776e6572206e6f7220617070726f766564000000000000000000000000000000602082015250565b7f43686f6f7365206120637562652077697468696e2072616e6765000000000000600082015250565b7f455243373231456e756d657261626c653a20676c6f62616c20696e646578206f60008201527f7574206f6620626f756e64730000000000000000000000000000000000000000602082015250565b7f4e6f7420656e6f756768207469636b6574732100000000000000000000000000600082015250565b615e7a81615505565b8114615e8557600080fd5b50565b615e9181615517565b8114615e9c57600080fd5b50565b615ea881615523565b8114615eb357600080fd5b50565b615ebf8161552d565b8114615eca57600080fd5b50565b615ed681615579565b8114615ee157600080fd5b5056fea26469706673582212207ed6232204ddb50f1010d8774e940992c5e555cd464460989fd50681590eda1f64736f6c63430008020033",
  "linkReferences": {},
  "deployedLinkReferences": {}
}